:101800003BC06FC054C053C052C051C050C04FC045
:101810004EC04DC04CC04BC04AC049C048C047C074
:1018200046C045C044C009021200010100803209CF
:10183000040000000000000012011001FF00000879
:10184000C016DC050201010200010E035500530021
:1018500042006100730070001C037700770077007E
:101860002E00660069007300630068006C002E00A3
:10187000640065000403090411241FBECFE5D4E011
:10188000DEBFCDBF10E0A0E6B0E0EEE1FFE102C0B8
:1018900005900D92A636B107D9F710E0A6E6B0E0A4
:1018A00001C01D92AC39B107E1F754D137C3A8CFBD
:1018B000A82FB92F80E090E041E050EA60956F5F7B
:1018C00058F42D9138EF82279795879510F084274B
:1018D00095273F5FC8F3F3CF0895EADF8D939D937B
:1018E0000895CF93CFB7CF93C395849BE9F7849B9B
:1018F00009C0849B07C0849B05C0849B03C0849B54
:1019000001C0A1C0DF93C0917F00DD27CA57DF4F20
:10191000849B02C0DF91EBCF2F930F931F9300B3F3
:101920002FEF04FB20F94F933F9310B34FEF0127A4
:1019300004FB21F93BE031C04E7F012F10B3216041
:1019400028C0102F4D7F2260000000B329C04B7FBC
:101950002460012F000010B32BC010B3477F286014
:101960002AC04F7E00B320612CC04F7D10B320628F
:101970002FC04F7B00B3206432C0422700B349938D
:101980004FEF0000102714FB20F910B31471C9F1B8
:10199000297F91F2012704FB21F900B3237F89F20B
:1019A000315058F1102714FB22F910B3277E79F239
:1019B000012704FB23F92F7C81F200B3102714FBCD
:1019C00024F92F7971F200C010B3012704FB25F927
:1019D0002F7359F200C000B3102714FB26F92230F0
:1019E00040F200C010B3012704FB27F9243028F689
:1019F0004F77206810B30000F9CF10E41ABF00271A
:101A000017C03B503195C31BD04010E41ABF08816A
:101A1000033CE9F00B34D9F020917D001981110FBE
:101A20001213EDCF093641F10D3211F0013E39F7B5
:101A3000009384003F914F911F910F912F91DF915F
:101A4000CAB7C6FD51CFCF91CFBFCF911895209186
:101A50008400222379F310918200112311F5343090
:101A600012F13093820020937E0010917F003BE0C2
:101A7000311B30937F0017C00091820001308CF43D
:101A80000AE53091600034FD10C000936000C2E7A9
:101A9000D0E00FC02795A8F45150A9F4220F000000
:101AA000F9CF4AE503C042ED01C0432FC4E1D0E0C5
:101AB00032E011B31461949A11BB02B320E414E133
:101AC0005F93012756E002BB279520F4515021F483
:101AD000220FF9CF012756E000003B5A02BBD0F29B
:101AE000279528F4515029F4220F0000F9CF01273F
:101AF00056E0279502BB20F4515021F4220FF9CF74
:101B0000012756E02991332302BB21F60B7E109169
:101B10008300110FC651D04002BB11F010937D001D
:101B200010E41ABF006111B31B7E402F4B7E5F9102
:101B300000C000C002BB11BB42BB7CCF12BAF894FC
:101B40001BBE15BE81E08BBF1BBEE0917000F09103
:101B500071000995CFE5D4E0DEBFCDBF88E10FB6B7
:101B6000F89481BD11BC0FBE979A04B601FED5C191
:101B700014BE81E08BBF82E08BBF8799CEC1CC249D
:101B8000BC2C85B7836085BF8BB780648BBF8C9A74
:101B90002FEFA89588EB9BE00197F1F72150C9F74B
:101BA0008C98789490918200935097FD41C18091D8
:101BB0007F00A2E9B0E0A81BB10980917E008D32C0
:101BC00009F0CBC0983009F031C183EC80937200EA
:101BD0008AE58093600010926A008C918076ED0116
:101BE0002981882309F453C0E0E086E690E09093D1
:101BF000810080938000233041F58E2FFB80EC81A3
:101C0000EE2E9A81903331F4E370FF27EE59FF4FA7
:101C1000808117C0903A39F4E199FECFFFBAEEBA4D
:101C2000E09A8DB30EC0903C61F4FD019581E1997D
:101C3000FECFFFBAEEBA9DBB0FB6F894E29AE19AD6
:101C40000FBE80936900E4E072C0253011F4E1E03A
:101C50006EC0822F8450863098F4ED018A819B817A
:101C600090936D0080936C00293009F460C08E81E0
:101C700080936E008D81827080936F00EFEF57C06C
:101C8000223009F054C081E080936B0050C04BE7D4
:101C900050E0FD01928180937B00222321F4809308
:101CA0007C0082E03FC0253019F4909383003AC055
:101CB000263059F5282FED018B81813021F422E166
:101CC00088E398E119C0823021F422E186E298E1AC
:101CD00013C08330A9F4992321F424E084E798E128
:101CE0000BC0913021F42CE188E598E105C09230D9
:101CF00039F42EE08AE498E190938100809380008B
:101D000080E480936A00822F11C0283019F445E8DE
:101D100050E007C0293019F49093850003C02A30A1
:101D200009F481E05093810040938000E82FEF3F59
:101D300049F48C9187FF02C0ED01EE8180E8809329
:101D40006A0008C0ED018F81882321F48E818E17EF
:101D500008F4E82FE093610069C080916A0087FF72
:101D600065C0492F80916E00891708F4482F841BA5
:101D700080936E0060E0882309F461E050E054171E
:101D800008F048C083E0D82E01E070916F0015E0A4
:101D900020916C0030916D00C1E1C9018F7390708A
:101DA000892B49F4F894F901D0925700E89578947A
:101DB00007B600FCFDCF5E5FF8948D919D91F9010F
:101DC0000C0100935700E89511247894F90132969C
:101DD0009F01CF018F739070892B31F0662399F0AA
:101DE000541788F0772379F0F894329710935700BE
:101DF000E8953296789407B600FCFDCFF894C0932E
:101E00005700E8957894541708F4C7CFF0936D0005
:101E1000E0936C00262F33272F3F21F48EE180932F
:101E2000600004C0222311F0109261001092820021
:101E30008091600084FF5DC0809161008F3F09F454
:101E400058C0282F893008F028E0821B8093610059
:101E50008091720098E8892780937200A3E7B0E030
:101E6000622F2223A9F180916A0087FF1CC0922F64
:101E700080916E00821708F4982F891B80936E0062
:101E800020E0291770F4E0916C00F0916D008491CE
:101E90008D9331962F5F2917D0F3F0936D00E09367
:101EA0006C00692F15C0922FE0918000F0918100A5
:101EB00086FF06C084918D9331969150D9F704C066
:101EC00081918D939150E1F7F0938100E093800030
:101ED0007727C62F693038F483E790E0FEDCCC5FCB
:101EE000CC3028F401C0CEE18FEF80936100C09325
:101EF000600094E180B3847131F49150D9F79093EC
:101F0000830090937D0080916B00882321F0CA9418
:0E1F100011F4BA9411F0879B45CE10DEFFCF7E
:061F1E005AFF1E930700AC
:0400000300001800E1
:00000001FF
