:1018000042C076C05BC05AC059C058C057C056C00D
:1018100055C054C053C052C051C050C04FC04EC03C
:101820004DC04CC04BC04AC049C048C047C046C06C
:1018300045C044C0090212000101008032090400C1
:1018400000000000000012011001FF000008C01697
:10185000DC050201010200010E03550053004200A5
:101860006100730070001C037700770077002E0082
:10187000660069007300630068006C002E0064005D
:1018800065000403090411241FBECFEFD4E0DEBFBE
:10189000CDBF11E0A0E0B1E0ECE6FFE102C00590B1
:1018A0000D92A630B107D9F711E0A6E0B1E001C072
:1018B0001D92AC33B107E1F771D157C3A1CFA82F67
:1018C000B92F80E090E041E050EA60956F5F58F4F6
:1018D0002D9138EF82279795879510F084279527CB
:1018E0003F5FC8F3F3CF0895EADF8D939D9308958A
:1018F000CF93CFB7CF93C3954C9BE9F74C9B0BC0CD
:101900004C9B09C04C9B07C04C9B05C04C9B03C023
:101910004C9B01C0C0C0C0911F01DF93DD27CA5D91
:10192000DE4F2F932FEF4C9B03C02F91DF91E6CF1B
:101930000F931F934F936F9309B104FB20F93F93CB
:101940003BE05F931EC04E7F012F19B11471E1F08F
:10195000216000001DC0102F4D7F2260000009B1E2
:10196000047191F01DC04B7F2460012F000019B15C
:10197000147151F01EC019B1147131F0477F286005
:101980001BC019B1147109F462C04FEF297FD9F25D
:10199000012704FB21F909B10471B1F3237FD9F2C6
:1019A000102714FB22F900C019B1147169F3277EC6
:1019B000D1F2012704FB23F92F7CE9F209B104716C
:1019C00019F3102714FB24F92F7929F100C019B15C
:1019D0001471E9F1012704FB25F92F7311F100C0FF
:1019E00009B10471A1F1102714FB26F92230F8F097
:1019F00000C019B1147159F1012704FB27F92430F3
:101A0000E0F04227000009B14993102714FB20F9A8
:101A10003150C8F0B6CF4F7E09B10471C1F02061DA
:101A2000D3CF206219B1147191F04F7DD6CF4F7B87
:101A300009B1047161F02064D9CF4F7719B11471E5
:101A400031F02068DCCF11E01CBB002717C03B50F1
:101A50003195C31BD04011E01CBB0881033CF9F059
:101A60000B34E9F020911D011981110F1213EDCFF4
:101A7000093651F10D3211F0013E39F7009324017E
:101A80005F913F916F914F911F910F912F91DF9136
:101A9000CCB3C0FD30CFCF91CFBFCF91189520915F
:101AA0002401222369F310912201112331F53430EE
:101AB00032F13093220120931E0110911F013BE06F
:101AC000311B30931F011BC0009122010130ACF487
:101AD0000AE53091000134FD13C000930001C2E11A
:101AE000D1E012C005271127000019C005271127D2
:101AF0001FC005271127000024C04AE502C032EDAF
:101B0000432FC4E1D0E032E01AB114615C9A0BB10A
:101B10001AB954E120E866E020FF052727950BB9A4
:101B200017951C3FF8F66A95B9F720FF052727950A
:101B300000000BB917951C3FC8F620FF0527279515
:101B4000179566E01C3F0BB9A0F629913A9521F74D
:101B50000B7E10912301110F0BB9C651D04011F02B
:101B600010931D0111E01CBB00611AB11B7E402FB8
:101B70004B7E53E05A95F1F700C00BB91AB94BB937
:101B80007FCF1BB8F8941DBA1092690081E085BF21
:101B900015BEE0911001F09111010995CFEFD4E04D
:101BA000DEBFCDBF88E10FB6F8948093600010923D
:101BB00060000FBE5F9A04B601FED6C114BE81E07C
:101BC00085BF82E085BF4F99CFC1CC24BC2C8091CA
:101BD0006900836080936900E89A549A2FEFA89572
:101BE00086EA9EE00197F1F72150C9F7549878945E
:101BF00090912201935097FD42C180911F01A2E371
:101C0000B1E0A81BB10980911E018D3209F0CCC052
:101C1000983009F032C183EC809312018AE58093F9
:101C2000000110920A018C918076ED0129818823B0
:101C300009F454C0E0E086E091E0909321018093A4
:101C40002001233049F58E2FFB80EC81EE2E9A8106
:101C5000903331F4E370FF27EE5FFE4F808118C0B0
:101C6000903A39F4F999FECFF2BCE1BCF89A80B50C
:101C70000FC0903C69F4FD019581F999FECF1FBA20
:101C8000F2BCE1BC90BD0FB6F894FA9AF99A0FBE77
:101C900080930901E4E072C0253011F4E1E06EC0E8
:101CA000822F8450863098F4ED018A819B81909335
:101CB0000D0180930C01293009F460C08E8180935E
:101CC0000E018D81827080930F01EFEF57C022309B
:101CD00009F054C081E080930B0150C04BE151E00A
:101CE000FD01928180931B01222321F480931C012A
:101CF00082E03FC0253019F4909323013AC026308A
:101D000059F5282FED018B81813021F422E186E401
:101D100098E119C0823021F422E184E398E113C0F4
:101D20008330A9F4992321F424E082E898E10BC0E0
:101D3000913021F42CE186E698E105C0923039F427
:101D40002EE088E598E1909321018093200180E4C2
:101D500080930A01822F11C0283019F445E251E026
:101D600007C0293019F49093250103C02A3009F4E3
:101D700081E05093210140932001E82FEF3F49F487
:101D80008C9187FF02C0ED01EE8180E880930A010B
:101D900008C0ED018F81882321F48E818E1708F40D
:101DA000E82FE093010169C080910A0187FF65C0B7
:101DB000492F80910E01891708F4482F841B8093C6
:101DC0000E0160E0882309F461E050E0541708F048
:101DD00048C083E0D82E01E070910F0115E02091FA
:101DE0000C0130910D01C1E1C9018F739070892BF5
:101DF00049F4F894F901D0925700E895789407B621
:101E000000FCFDCF5E5FF8948D919D91F9010C016E
:101E100000935700E89511247894F90132969F01B8
:101E2000CF018F739070892B31F0662399F054178E
:101E300088F0772379F0F894329710935700E8955B
:101E40003296789407B600FCFDCFF894C093570003
:101E5000E8957894541708F4C7CFF0930D01E093F8
:101E60000C01262F33272F3F21F48EE180930001B0
:101E700004C0222311F010920101109222018091DE
:101E8000000184FF5DC0809101018F3F09F458C0BB
:101E9000282F893008F028E0821B8093010180916F
:101EA000120198E8892780931201A3E1B1E0622F23
:101EB0002223A9F180910A0187FF1CC0922F8091F3
:101EC0000E01821708F4982F891B80930E0120E0E1
:101ED000291770F4E0910C01F0910D0184918D931C
:101EE00031962F5F2917D0F3F0930D01E0930C0189
:101EF000692F15C0922FE0912001F091210186FFFA
:101F000006C084918D9331969150D9F704C0819188
:101F10008D939150E1F7F0932101E0932001772711
:101F2000C62F693038F483E191E0DEDCCC5FCC3041
:101F300028F401C0CEE18FEF80930101C09300012E
:101F400094E189B1847131F49150D9F790932301D0
:101F500090931D0180910B01882321F0CA9411F404
:0C1F6000BA9411F04F9B44CE0CDEFFCF72
:061F6C005AFF1E930A005B
:0400000300001800E1
:00000001FF
