:103800000C945D1C0C94951C0C947A1C0C947A1CE2
:103810000C947A1C0C947A1C0C947A1C0C947A1CD0
:103820000C947A1C0C947A1C0C947A1C0C947A1CC0
:103830000C947A1C0C947A1C0C947A1C0C947A1CB0
:103840000C947A1C0C947A1C0C947A1C0C947A1CA0
:103850000C947A1C0C947A1C0C947A1C0C947A1C90
:103860000C947A1C0C947A1C09021200010100804D
:103870003209040000000000000012011001FF00E6
:103880000008C016DC050201010200010E0355000C
:10389000530042006100730070001C037700770042
:1038A00077002E00660069007300630068006C00FA
:1038B0002E00640065000403090411241FBECFEF2D
:1038C000D4E0DEBFCDBF11E0A0E0B1E0EAEAFFE363
:1038D00002C005900D92A630B107D9F711E0A6E01D
:1038E000B1E001C01D92AD33B107E1F70E94B61DF2
:1038F0000C94D41F0C94001CA82FB92F80E090E0EA
:1039000041E050EA60956F5F58F42D9138EF8227BF
:103910009795879510F0842795273F5FC8F3F3CFDD
:103920000895EADF8D939D930895CF93CFB7CF93FA
:10393000DF93C3954C9BE9F74C9B0BC04C9B09C094
:103940004C9B07C04C9B05C04C9B03C04C9B01C0CB
:1039500089C06F93C0912001DD27C95DDE4F2F9391
:1039600065E54C9B03C02F916F91E6CF0F931F939A
:103970004F9320E040E15F9309B1047104FB27F904
:103980003F9350E03BE039C0147140642F77012F22
:1039900053501EC0406819B114712F7753501FC087
:1039A000406409B12F770471D1F15350000023C056
:1039B000406219B12F77147191F15350000025C066
:1039C00004711027515012F45D5F000011502795CB
:1039D0002C3F19B1C8F614710127015027952C3FCF
:1039E000C8F64227499309B1047110274F7311504B
:1039F00027952C3FA8F64695469519B1147179F094
:103A00000127015027952C3F98F66B5A60F33150EF
:103A100009B1B0F600C011E01CBB002717C03B5035
:103A20003195C31BD04011E01CBB0881033CF9F069
:103A30000B34E9F020911E011981110F1213EDCF03
:103A4000093651F10D3211F0013E39F7009325018D
:103A50003F915F914F911F910F912F916F91CCB337
:103A6000C0FD67CFDF91CF91CFBFCF911895209147
:103A70002501222369F310912301112339F53430F4
:103A80003AF13093230120931F01109120013BE074
:103A9000311B309320011CC0009123010130B4F48C
:103AA0000AE53091000134FD14C000930001C3E128
:103AB000D1E013C0052710E000C000000BB91AC008
:103AC000052710E0221F1DC010E021C04AE502C0FA
:103AD00032ED432FC4E1D0E032E01AB114615C9AB8
:103AE0000BB11AB954E120E865E320FF05270BB9B3
:103AF000279517951C3FF0F66695B8F7B1F720FFAC
:103B000005270BB9279517951C3FD0F627951795D4
:103B100017FF052700001C3F0BB9B0F629913A9515
:103B200019F70B7E10912401110FC651D0400BB92B
:103B300011F010931E0111E01CBB00611AB11B7E35
:103B4000402F4B7E54E05A95F1F70BB91AB94BB997
:103B50007FCF1BB8F8941DBA1092690081E085BF31
:103B600015BEE0911101F09112010995CFEFD4E05B
:103B7000DEBFCDBF88E10FB6F8948093600010924D
:103B800060000FBE5F9A04B601FE0CC214BE81E055
:103B900085BF82E085BF4F9905C2EE24BE2C80917F
:103BA0006900836080936900E89A549A2FEFA89582
:103BB00080EA9FE00197F1F72150C9F75498789473
:103BC00090912301935097FD68C180912001A3E358
:103BD000B1E0A81BB10980911F018D3209F0CEC060
:103BE000983009F058C183EC809313018AE58093E3
:103BF000000110920A018C918076ED0129818823C1
:103C000009F456C0E0E086E091E0909322018093B1
:103C10002101233049F58E2FDB80EC81CE2E9A8155
:103C2000903331F4E370FF27EE5FFE4F808118C0C0
:103C3000903A39F4F999FECFD2BCC1BCF89A80B55C
:103C40000FC0903C69F4FD019581F999FECF1FBA30
:103C5000D2BCC1BC90BD0FB6F894FA9AF99A0FBEC7
:103C600080930901E4E074C0253011F4E1E070C0F4
:103C7000822F84508630A8F4ED018A819B81909335
:103C80000D0180930C01293009F462C08E8180936C
:103C90000E018D81827080930F0120931001EFEF50
:103CA00057C0223009F054C081E080930B0150C00E
:103CB0004CE151E0FD01928180931C01222321F40B
:103CC00080931D0182E03FC0253019F490932401B8
:103CD0003AC0263059F5282FED018B81813021F42F
:103CE00022E18AE798E319C0823021F422E188E6D4
:103CF00098E313C08330A9F4992321F424E086EBE0
:103D000098E30BC0913021F42CE18AE998E305C0D7
:103D1000923039F42EE08CE898E39093220180935E
:103D2000210180E480930A01822F11C0283019F408
:103D300046E251E007C0293019F49093260103C0F0
:103D40002A3009F481E05093220140932101E82FA9
:103D5000EF3F49F48C9187FF02C0ED01EE8180E8CE
:103D600080930A0108C0ED018F81882321F48E81A0
:103D70008E1708F4E82FE09301018DC080910A01AD
:103D800087FF89C0792F80910E01891708F4782F59
:103D9000871B80930E01C0E0882309F4C1E0809165
:103DA0001001873000F1E0E0E71708F068C04091AB
:103DB0000C0150910D01CA019A010196AC016D915F
:103DC000F999FECF1FBA32BD21BD60BD0FB6F89480
:103DD000FA9AF99A0FBEEF5FE71768F390930D0117
:103DE00080930C014CC040E0471708F048C083E0C6
:103DF000F82E01E050910F0115E020910C01309157
:103E00000D0161E1C9018F779070892B49F4F89415
:103E1000F901F0925700E895789407B600FCFDCFC1
:103E20004E5FF8948D919D91F9010C01009357001C
:103E3000E89511247894F90132969F01CF018F778C
:103E40009070892B31F0CC2399F0471788F05523D7
:103E500079F0F894329710935700E8953296789459
:103E600007B600FCFDCFF89460935700E89578946E
:103E7000471708F4C7CFF0930D01E0930C012C2FE6
:103E800033272F3F21F48EE18093000104C02223C9
:103E900011F010920101109223018091000184FF22
:103EA0006DC0809101018F3F09F468C0282F8930CF
:103EB00008F028E0821B809301018091130198E8AB
:103EC000892780931301A4E1B1E0622F222309F432
:103ED00043C080910A0187FF2AC080910E0182179A
:103EE00008F4282F821B80930E0130E03217E8F48B
:103EF00040911001E0910C01F0910D01CF0147308C
:103F000038F0F999FECF92BD81BDF89A80B501C015
:103F100084918C931196CF010196FC013F5F32177B
:103F200068F390930D0180930C01622F15C0922FBE
:103F3000E0912101F091220186FF06C084918D93CA
:103F400031969150D9F704C081918D939150E1F74A
:103F5000F0932201E09321017727C62F693040F4C6
:103F600084E191E00E94911CCC5FCC3028F401C028
:103F7000CEE18FEF80930101C093000194E189B1FC
:103F8000847131F49150D9F79093240190931E01DC
:103F900080910B01882321F0EA9411F4BA9411F076
:0A3FA0004F9B0ECE0E94A91DFFCF1B
:063FAA005AFF1E94060000
:0400000300003800C1
:00000001FF
