:101800003BC06FC054C053C052C051C050C04FC045
:101810004EC04DC04CC04BC04AC049C048C047C074
:1018200046C045C044C009021200010100803209CF
:10183000040000000000000012011001FF00000879
:10184000C016DC050201010200010E035500530021
:1018500042006100730070001C037700770077007E
:101860002E00660069007300630068006C002E00A3
:10187000640065000403090411241FBECFE5D4E011
:10188000DEBFCDBF10E0A0E6B0E0E4E5FFE102C0BE
:1018900005900D92A636B107D9F710E0A6E6B0E0A4
:1018A00001C01D92AD39B107E1F73BD152C3A8CFBA
:1018B000A82FB92F80E090E041E050EA60956F5F7B
:1018C00058F42D9138EF82279795879510F084274B
:1018D00095273F5FC8F3F3CF0895EADF8D939D937B
:1018E0000895CF93CFB7CF93DF93C395849BE9F748
:1018F000849B0BC0849B09C0849B07C0849B05C04C
:10190000849B03C0849B01C089C06F93C0918000F9
:10191000DD27C957DF4F2F9365E5849B03C02F91C7
:101920006F91E6CF0F931F934F9320E040E15F93B9
:1019300000B3047104FB27F93F9350E03BE039C04A
:10194000147140642F77012F53501EC0406810B3AC
:1019500014712F7753501FC0406400B32F77047168
:10196000D1F15350000023C0406210B32F7714719F
:1019700091F15350000025C004711027515012F40A
:101980005D5F0000115027952C3F10B3C8F614710D
:101990000127015027952C3FC8F64227499300B3F1
:1019A000047110274F73115027952C3FA8F64695C8
:1019B000469510B3147179F00127015027952C3FFB
:1019C00098F66B5A60F3315000B3B0F600C010E4E3
:1019D0001ABF002717C03B503195C31BD04010E4FD
:1019E0001ABF0881033CF9F00B34E9F020917E0026
:1019F0001981110F1213EDCF093651F10D3211F08B
:101A0000013E39F7009385003F915F914F911F91FF
:101A10000F912F916F91CAB7C6FD67CFDF91CF911C
:101A2000CFBFCF91189520918500222369F31091A3
:101A30008300112339F534303AF130938300209339
:101A40007F00109180003BE0311B309380001CC070
:101A5000009183000130B4F40AE53091600034FD58
:101A600014C000936000C3E7D0E013C0052710E066
:101A700000C0000002BB1AC0052710E0221F1DC0D5
:101A800010E021C04AE502C032ED432FC4E1D0E0AE
:101A900032E011B31461949A02B311BB54E120E80F
:101AA00065E320FF052702BB279517951C3FF0F63D
:101AB0006695B8F7B1F720FF052702BB2795179564
:101AC0001C3FD0F62795179517FF052700001C3FF0
:101AD00002BBB0F629913A9519F70B7E109184005C
:101AE000110FC651D04002BB11F010937E0010E4DC
:101AF0001ABF006111B31B7E402F4B7E54E05A95F4
:101B0000F1F702BB11BB42BB7FCF12BAF8941BBEE8
:101B100015BE81E08BBF1BBEE0917100F091720099
:101B20000995CFE5D4E0DEBFCDBF88E10FB6F894CC
:101B300081BD11BC0FBE979A04B601FE09C214BE46
:101B400081E08BBF82E08BBF879902C2EE24BE2C5E
:101B500085B7836085BF8BB780648BBF8C9A2FEF6E
:101B6000A89580EA9FE00197F1F72150C9F78C987A
:101B7000789490918300935097FD66C18091800086
:101B8000A3E9B0E0A81BB10980917F008D3209F074
:101B9000CDC0983009F056C183EC809373008AE57C
:101BA0008093600010926A008C918076ED0129810B
:101BB000882309F455C0E0E086E690E09093820027
:101BC00080938100233041F58E2FDB80EC81CE2E77
:101BD0009A81903331F4E370FF27EE59FF4F8081F3
:101BE00017C0903A39F4E199FECFDFBACEBAE09A45
:101BF0008DB30EC0903C61F4FD019581E199FECF5B
:101C0000DFBACEBA9DBB0FB6F894E29AE19A0FBE46
:101C100080936900E4E074C0253011F4E1E070C005
:101C2000822F84508630A8F4ED018A819B819093A5
:101C30006D0080936C00293009F462C08E8180931E
:101C40006E008D81827080936F0020937000EFEFA3
:101C500057C0223009F054C081E080936B0050C01F
:101C60004CE750E0FD01928180937C00222321F417
:101C700080937D0082E03FC0253019F4909384006A
:101C80003AC0263059F5282FED018B81813021F49F
:101C900022E188E398E119C0823021F422E186E252
:101CA00098E113C08330A9F4992321F424E084E758
:101CB00098E10BC0913021F42CE188E598E105C052
:101CC000923039F42EE08AE498E190938200809378
:101CD000810080E480936A00822F11C0283019F4BB
:101CE00046E850E007C0293019F49093860003C0FD
:101CF0002A3009F481E05093820040938100E82F5C
:101D0000EF3F49F48C9187FF02C0ED01EE8180E83E
:101D100080936A0008C0ED018F81882321F48E81B1
:101D20008E1708F4E82FE09361008CC080916A0060
:101D300087FF88C0792F80916E00891708F4782F6B
:101D4000871B80936E00C0E0882309F4C1E0809176
:101D500070008730F8F0E0E0E71708F067C04091C6
:101D60006C0050916D00CA019A010196AC016D9111
:101D7000E199FECF3FBB2EBB6DBB0FB6F894E29A44
:101D8000E19A0FBEEF5FE71770F390936D008093B9
:101D90006C004CC040E0471708F048C083E0F82EC4
:101DA00001E050916F0015E020916C0030916D00C2
:101DB00061E1C9018F739070892B49F4F894F9019E
:101DC000F0925700E895789407B600FCFDCF4E5F7F
:101DD000F8948D919D91F9010C0100935700E895BD
:101DE00011247894F90132969F01CF018F7390707E
:101DF000892B31F0CC2399F0471788F0552379F0DF
:101E0000F894329710935700E8953296789407B675
:101E100000FCFDCFF89460935700E895789447173D
:101E200008F4C7CFF0936D00E0936C002C2F33279C
:101E30002F3F21F48EE18093600004C0222311F033
:101E400010926100109283008091600084FF6CC04A
:101E5000809161008F3F09F467C0282F893008F016
:101E600028E0821B809361008091730098E88927A5
:101E700080937300A4E7B0E0622F222309F443C0EB
:101E800080916A0087FF2AC080916E00821708F453
:101E9000282F821B80936E0030E03217E8F44091C7
:101EA0007000E0916C00F0916D00CF01473038F088
:101EB000E199FECF9FBB8EBBE09A8DB301C08491A8
:101EC0008C931196CF010196FC013F5F321768F3A6
:101ED00090936D0080936C00622F15C0922FE0915B
:101EE0008100F091820086FF06C084918D93319627
:101EF0009150D9F704C081918D939150E1F7F093FF
:101F00008200E09381007727C62F693038F484E798
:101F100090E0E3DCCC5FCC3028F401C0CEE18FEF61
:101F200080936100C093600094E180B3847131F4C8
:101F30009150D9F79093840090937E0080916B002C
:101F4000882321F0EA9411F4BA9411F0879B11CE02
:041F5000DCDDFFCF06
:061F54005AFF1E93070076
:0400000300001800E1
:00000001FF
