:1018000042C076C05BC05AC059C058C057C056C00D
:1018100055C054C053C052C051C050C04FC04EC03C
:101820004DC04CC04BC04AC049C048C047C046C06C
:1018300045C044C0090212000101008032090400C1
:1018400000000000000012011001FF000008C01697
:10185000DC050201010200010E03550053004200A5
:101860006100730070001C037700770077002E0082
:10187000660069007300630068006C002E0064005D
:1018800065000403090411241FBECFEFD4E0DEBFBE
:10189000CDBF11E0A0E0B1E0E4E3FFE102C00590BC
:1018A0000D92A630B107D9F711E0A6E0B1E001C072
:1018B0001D92AC33B107E1F755D13BC3A1CFA82F9F
:1018C000B92F80E090E041E050EA60956F5F58F4F6
:1018D0002D9138EF82279795879510F084279527CB
:1018E0003F5FC8F3F3CF0895EADF8D939D9308958A
:1018F000CF93CFB7CF93C3954C9BE9F74C9B09C0CF
:101900004C9B07C04C9B05C04C9B03C04C9B01C02B
:10191000A1C0DF93C0911F01DD27CA5DDE4F4C9B44
:1019200002C0DF91EBCF2F930F931F9309B12FEFDD
:1019300004FB20F94F933F9319B14FEF012704FBAC
:1019400021F93BE031C04E7F012F19B1216028C041
:10195000102F4D7F2260000009B129C04B7F246009
:10196000012F000019B12BC019B1477F28602AC090
:101970004F7E09B120612CC04F7D19B120622FC06C
:101980004F7B09B1206432C0422709B149934FEF20
:101990000000102714FB20F919B11471C9F1297F37
:1019A00091F2012704FB21F909B1237F89F231501B
:1019B00058F1102714FB22F919B1277E79F201277B
:1019C00004FB23F92F7C81F209B1102714FB24F9C1
:1019D0002F7971F200C019B1012704FB25F92F738B
:1019E00059F200C009B1102714FB26F9223040F249
:1019F00000C019B1012704FB27F9243028F64F77DE
:101A0000206819B10000F9CF11E01CBB002717C0F6
:101A10003B503195C31BD04011E01CBB0881033CF7
:101A2000E9F00B34D9F020911D011981110F121327
:101A3000EDCF093641F10D3211F0013E39F7009337
:101A400024013F914F911F910F912F91DF91CCB3C2
:101A5000C0FD51CFCF91CFBFCF91189520912401D8
:101A6000222379F310912201112311F5343012F160
:101A70003093220120931E0110911F013BE0311B86
:101A800030931F0117C00091220101308CF40AE548
:101A90003091000134FD10C000930001C2E1D1E09B
:101AA0000FC02795A8F45150A9F4220F0000F9CFD8
:101AB0004AE503C042ED01C0432FC4E1D0E032E06B
:101AC0001AB114615C9A1AB90BB120E414E15F9366
:101AD000012756E00BB9279520F4515021F4220F2D
:101AE000F9CF012756E000003B5A0BB9D0F22795F9
:101AF00028F4515029F4220F0000F9CF012756E0B5
:101B000027950BB920F4515021F4220FF9CF01276A
:101B100056E0299133230BB921F60B7E1091230156
:101B2000110FC651D0400BB911F010931D0111E0F7
:101B30001CBB00611AB11B7E402F4B7E5F9100C021
:101B400000C00BB91AB94BB97CCF1BB8F8941DBAB9
:101B50001092690081E085BF15BEE0911001F091FF
:101B600011010995CFEFD4E0DEBFCDBF88E10FB6FC
:101B7000F89480936000109260000FBE5F9A04B6E4
:101B800001FED6C114BE81E085BF82E085BF4F99BA
:101B9000CFC1CC24BC2C8091690083608093690004
:101BA000E89A549A2FEFA89588EB9BE00197F1F7FC
:101BB0002150C9F75498789490912201935097FD41
:101BC00042C180911F01A2E3B1E0A81BB10980913D
:101BD0001E018D3209F0CCC0983009F032C183EC7F
:101BE000809312018AE58093000110920A018C9182
:101BF0008076ED012981882309F454C0E0E086E075
:101C000091E09093210180932001233049F58E2F9C
:101C1000FB80EC81EE2E9A81903331F4E370FF2744
:101C2000EE5FFE4F808118C0903A39F4F999FECFEB
:101C3000F2BCE1BCF89A80B50FC0903C69F4FD019C
:101C40009581F999FECF1FBAF2BCE1BC90BD0FB6E9
:101C5000F894FA9AF99A0FBE80930901E4E072C0F1
:101C6000253011F4E1E06EC0822F8450863098F464
:101C7000ED018A819B8190930D0180930C012930A5
:101C800009F460C08E8180930E018D8182708093F3
:101C90000F01EFEF57C0223009F054C081E080936C
:101CA0000B0150C04BE151E0FD01928180931B017B
:101CB000222321F480931C0182E03FC0253019F4D7
:101CC000909323013AC0263059F5282FED018B81DE
:101CD000813021F422E186E498E119C0823021F4B8
:101CE00022E184E398E113C08330A9F4992321F41D
:101CF00024E082E898E10BC0913021F42CE186E6E3
:101D000098E105C0923039F42EE088E598E190938F
:101D100021018093200180E480930A01822F11C069
:101D2000283019F445E251E007C0293019F49093A6
:101D3000250103C02A3009F481E05093210140932A
:101D40002001E82FEF3F49F48C9187FF02C0ED019D
:101D5000EE8180E880930A0108C0ED018F8188231D
:101D600021F48E818E1708F4E82FE093010169C0F9
:101D700080910A0187FF65C0492F80910E01891764
:101D800008F4482F841B80930E0160E0882309F437
:101D900061E050E0541708F048C083E0D82E01E01D
:101DA00070910F0115E020910C0130910D01C1E1FE
:101DB000C9018F739070892B49F4F894F901D0927E
:101DC0005700E895789407B600FCFDCF5E5FF89465
:101DD0008D919D91F9010C0100935700E895112414
:101DE0007894F90132969F01CF018F739070892BFF
:101DF00031F0662399F0541788F0772379F0F8943E
:101E0000329710935700E8953296789407B600FC05
:101E1000FDCFF894C0935700E8957894541708F4D0
:101E2000C7CFF0930D01E0930C01262F33272F3FEE
:101E300021F48EE18093000104C0222311F010925E
:101E40000101109222018091000184FF5DC0809108
:101E500001018F3F09F458C0282F893008F028E08D
:101E6000821B809301018091120198E88927809359
:101E70001201A3E1B1E0622F2223A9F180910A01AE
:101E800087FF1CC0922F80910E01821708F4982FB3
:101E9000891B80930E0120E0291770F4E0910C015A
:101EA000F0910D0184918D9331962F5F2917D0F316
:101EB000F0930D01E0930C01692F15C0922FE09172
:101EC0002001F091210186FF06C084918D93319607
:101ED0009150D9F704C081918D939150E1F7F0931F
:101EE0002101E09320017727C62F693038F483E180
:101EF00091E0FADCCC5FCC3028F401C0CEE18FEF6A
:101F000080930101C093000194E189B1847131F49F
:101F10009150D9F79093230190931D0180910B016B
:101F2000882321F0CA9411F4BA9411F04F9B44CE47
:041F30000CDEFFCFF5
:061F34005AFF1E930A0093
:0400000300001800E1
:00000001FF
