:101800003BC06FC054C053C052C051C050C04FC045
:101810004EC04DC04CC04BC04AC049C048C047C074
:1018200046C045C044C009021200010100803209CF
:10183000040000000000000012011001FF00000879
:10184000C016DC050201010200010E035500530021
:1018500042006100730070001C037700770077007E
:101860002E00660069007300630068006C002E00A3
:10187000640065000403090411241FBECFE5D4E011
:10188000DEBFCDBF10E0A0E6B0E0E6E5FFE102C0BC
:1018900005900D92A636B107D9F710E0A6E6B0E0A4
:1018A00001C01D92AC39B107E1F770D153C3A8CF85
:1018B000A82FB92F80E090E041E050EA60956F5F7B
:1018C00058F42D9138EF82279795879510F084274B
:1018D00095273F5FC8F3F3CF0895EADF8D939D937B
:1018E0000895CF93CFB7CF93C395849BE9F7849B9B
:1018F0000BC0849B09C0849B07C0849B05C0849B4C
:1019000003C0849B01C0C0C0C0917F00DF93DD276E
:10191000CA57DF4F2F932FEF849B03C02F91DF9186
:10192000E6CF0F931F934F936F9300B304FB20F9FF
:101930003F933BE05F931EC04E7F012F10B31471A5
:10194000E1F0216000001DC0102F4D7F22600000DB
:1019500000B3047191F01DC04B7F2460012F000083
:1019600010B3147151F01EC010B3147131F0477FE1
:1019700028601BC010B3147109F462C04FEF297FB7
:10198000D9F2012704FB21F900B30471B1F3237FDD
:10199000D9F2102714FB22F900C010B3147169F3B7
:1019A000277ED1F2012704FB23F92F7CE9F200B353
:1019B000047119F3102714FB24F92F7929F100C0C1
:1019C00010B31471E9F1012704FB25F92F7311F10C
:1019D00000C000B30471A1F1102714FB26F92230D6
:1019E000F8F000C010B3147159F1012704FB27F976
:1019F0002430E0F04227000000B34993102714FB85
:101A000020F93150C8F0B6CF4F7E00B30471C1F059
:101A10002061D3CF206210B3147191F04F7DD6CFE7
:101A20004F7B00B3047161F02064D9CF4F7710B3BE
:101A3000147131F02068DCCF10E41ABF002717C002
:101A40003B503195C31BD04010E41ABF0881033CC2
:101A5000F9F00B34E9F020917D001981110F121378
:101A6000EDCF093651F10D3211F0013E39F70093F7
:101A700084005F913F916F914F911F910F912F9132
:101A8000DF91CAB7C6FD30CFCF91CFBFCF911895A8
:101A900020918400222369F310918200112331F5F3
:101AA000343032F13093820020937E0010917F0019
:101AB0003BE0311B30937F001BC00091820001305E
:101AC000ACF40AE53091600034FD13C0009360006F
:101AD000C2E7D0E012C005271127000019C0052772
:101AE00011271FC005271127000024C04AE502C0A6
:101AF00032ED432FC4E1D0E032E011B31461949A87
:101B000002B311BB54E120E866E020FF05272795CA
:101B100002BB17951C3FF8F66A95B9F720FF052719
:101B20002795000002BB17951C3FC8F620FF05272C
:101B30002795179566E01C3F02BBA0F629913A95C0
:101B400021F70B7E10918300110F02BBC651D040CC
:101B500011F010937D0010E41ABF006111B31B7ED9
:101B6000402F4B7E53E05A95F1F700C002BB11BBEA
:101B700042BB7FCF12BAF8941BBE15BE81E08BBF6B
:101B80001BBEE0917000F09171000995CFE5D4E0A3
:101B9000DEBFCDBF88E10FB6F89481BD11BC0FBE8A
:101BA000979A04B601FED5C114BE81E08BBF82E0D6
:101BB0008BBF8799CEC1CC24BC2C85B7836085BFF1
:101BC0008BB780648BBF8C9A2FEFA89586EA9EE036
:101BD0000197F1F72150C9F78C9878949091820081
:101BE000935097FD41C180917F00A2E9B0E0A81B0E
:101BF000B10980917E008D3209F0CBC0983009F098
:101C000031C183EC809372008AE58093600010926A
:101C10006A008C918076ED012981882309F453C0F4
:101C2000E0E086E690E0909381008093800023308E
:101C300041F58E2FFB80EC81EE2E9A81903331F4AA
:101C4000E370FF27EE59FF4F808117C0903A39F4B7
:101C5000E199FECFFFBAEEBAE09A8DB30EC0903C88
:101C600061F4FD019581E199FECFFFBAEEBA9DBB0B
:101C70000FB6F894E29AE19A0FBE80936900E4E00F
:101C800072C0253011F4E1E06EC0822F845086309E
:101C900098F4ED018A819B8190936D0080936C0094
:101CA000293009F460C08E8180936E008D8182702E
:101CB00080936F00EFEF57C0223009F054C081E0ED
:101CC00080936B0050C04BE750E0FD019281809300
:101CD0007B00222321F480937C0082E03FC02530EA
:101CE00019F4909383003AC0263059F5282FED015E
:101CF0008B81813021F422E188E398E119C08230A0
:101D000021F422E186E298E113C08330A9F49923FB
:101D100021F424E084E798E10BC0913021F42CE118
:101D200088E598E105C0923039F42EE08AE498E124
:101D3000909381008093800080E480936A00822FDA
:101D400011C0283019F445E850E007C0293019F4D3
:101D50009093850003C02A3009F481E050938100FC
:101D600040938000E82FEF3F49F48C9187FF02C039
:101D7000ED01EE8180E880936A0008C0ED018F815B
:101D8000882321F48E818E1708F4E82FE0936100F8
:101D900069C080916A0087FF65C0492F80916E00FD
:101DA000891708F4482F841B80936E0060E0882315
:101DB00009F461E050E0541708F048C083E0D82EE1
:101DC00001E070916F0015E020916C0030916D0082
:101DD000C1E1C9018F739070892B49F4F894F9011E
:101DE000D0925700E895789407B600FCFDCF5E5F6F
:101DF000F8948D919D91F9010C0100935700E8959D
:101E000011247894F90132969F01CF018F7390705D
:101E1000892B31F0662399F0541788F0772379F0F5
:101E2000F894329710935700E8953296789407B655
:101E300000FCFDCFF894C0935700E89578945417B0
:101E400008F4C7CFF0936D00E0936C00262F332782
:101E50002F3F21F48EE18093600004C0222311F013
:101E600010926100109282008091600084FF5DC03A
:101E7000809161008F3F09F458C0282F893008F005
:101E800028E0821B809361008091720098E8892786
:101E900080937200A3E7B0E0622F2223A9F1809122
:101EA0006A0087FF1CC0922F80916E00821708F491
:101EB000982F891B80936E0020E0291770F4E09121
:101EC0006C00F0916D0084918D9331962F5F2917EE
:101ED000D0F3F0936D00E0936C00692F15C0922F42
:101EE000E0918000F091810086FF06C084918D937F
:101EF00031969150D9F704C081918D939150E1F7BB
:101F0000F0938100E09380007727C62F693038F482
:101F100083E790E0E2DCCC5FCC3028F401C0CEE176
:101F20008FEF80936100C093600094E180B384716F
:101F300031F49150D9F79093830090937D00809174
:101F40006B00882321F0CA9411F4BA9411F0879B96
:061F500045CE10DEFFCFBC
:061F56005AFF1E93070074
:0400000300001800E1
:00000001FF
